:060000000C9402020C94B6
:1000060000000C9416030C9400000C9400000C9451
:100016007B040C9400000C9400000C9400000C94DB
:1000260000000C9400000C9433040C9400000C9413
:10003600E8030C9400000C9400000C9400000C944F
:1000460000000C9400000C9400000C940000102793
:10005600E80364000A00010000100001100001001E
:100066000000000000000000000001000B0E190057
:100076000000257325630041545A0041542646006A
:1000860041542B434D45453D310041542B43504986
:100096004E3F0052454144590041542B4350494E6E
:1000A6003D222573220041542B434D47463D3100E6
:1000B60041542B43534D503D31372C3139362C307A
:1000C6002C300041542B435343533D2247534D227A
:1000D600004154004F4B0041542B435245473F00CB
:1000E600302C310041542B434D47533D222B257371
:1000F60022003E0025730041542B43474154543D92
:10010600310041542B434744434F4E543D312C223A
:100116004950222C22257322004552524F5200414B
:10012600542B435354543D222573222C22222C2235
:10013600220041542B43494943520041542B434921
:100146004653520041542B434950484541443D31A2
:100156000041542B43495053544152543D22544379
:1001660050222C222573222C2238302200434F4E57
:100176004E45435400414C524541445900434F4E6D
:100186004E454354204F4B004641494C0041542BA9
:1001960043495053454E440053454E44204F4B006F
:1001A6006C0074006D00620061006E003130342E08
:1001B60032382E32352E35004972616E63656C6CAD
:1001C6002D4750525300676F6C6F6772616D2E63D7
:1001D6006F6D002F6170692F76312F70726F6265B7
:1001E600732F70726F6365737300737563636573E2
:1001F60073223A747275650041542B434950436C1F
:100206004F53450041542B434950534855540025FC
:10021600733D25642625733D25642625733D256497
:100226002625733D25642625733D25642625733DC5
:1002360025642625733D25642625733D25640050D7
:100246004F535420257320485454502F312E300DCF
:100256000A486F73743A2025730D0A557365722D1B
:100266004167656E743A2048545450546F6F6C2F32
:10027600312E300D0A436F6E74656E742D5479708D
:10028600653A206170706C69636174696F6E2F786E
:100296002D7777772D666F726D2D75726C656E632F
:1002A6006F6465640D0A436F6E74656E742D4C65DC
:1002B6006E6774683A2025640D0A0D0A25730D0AC7
:1002C6000D0A0041542B4353510001002D4E414E5F
:1002D60000494E4600000A000400660001007E0345
:1002E6007000010060027600040061027D000500D6
:1002F600650281000A006A02860009007402900005
:1003060006007D0299000A008302AC0013008D02EC
:10031600B6000E00A002C9000300AE02D70003001B
:10032600B102DA000900B402DD000400BD02E600F5
:100336000200C102F8000300C302DA000300C6028D
:10034600D7000300C902DA000B00CC02FD0003004F
:10035600D702DA000600DA021F010300E002DA0023
:100366000900E30238010300EC02DA000900EF029B
:1003760041010D00F8024A0103000503DA000300FB
:100386000803DA0008000B037301080013037B015E
:100396000B001B038301050026038E010B002B03B4
:1003A600930102003603F800080038039E010C0092
:1003B6004003FE0103004C03DA000B004F030A0260
:1003C60003005A03DA0003005D03D700030060034D
:1003D600DA0003006303D70003006603DA000300B4
:1003E6006903D70003006C03DA0007006F03C90234
:1003F60004007603CC020100CD07D0020000F89479
:10040600EE27ECBBF1E0F5BFE5BF8DE0A2E0BB2730
:10041600ED938A95E9F780E098E0A0E6ED930197E1
:10042600E9F7ECEDF2E085919591009761F0A591E1
:10043600B59105901590BF01F00105900D920197B9
:10044600E1F7FB01F0CFEFE5EDBFE8E0EEBFC0E678
:10045600D2E00C94AB05AA93E881E062E7B985E2A5
:100466008A95F1F7369A349BFECF349AE5B12196F8
:100476000895E0E0E0938403E09385030E94D00DA5
:10048600A13AE0E0BE0724F0E1E0F0E00E94D50DDD
:100496000E94D00DA53BE0E0BE0724F0E2E0F0E0CC
:1004A6000E94D50D0E94D00DA93CE0E0BE0724F0C5
:1004B600E3E0F0E00E94D50D0E94D00DAD3DE0E0F6
:1004C600BE0724F0E4E0F0E00E94D50DE0E0E09302
:1004D6008003E09381030E94DA0DA93CE0E0BE07A9
:1004E60024F0E1E0F0E00E94DF0D0E94DA0DAF306B
:1004F600E1E0BE0724F0E2E0F0E00E94DF0D0E949A
:10050600DA0DAF35E1E0BE0724F0E3E0F0E00E944B
:10051600DF0D0E94DA0DA139E1E0BE0724F0E4E028
:10052600F0E00E94DF0DE0E0E0938203E0938303B6
:100536000E94E40D5A9724F0E1E0F0E00E94E90DF4
:100546000E94E40DD39724F0E2E0F0E00E94E90D6A
:100556000E94E40DAB35E0E0BE0724F0E3E0F0E0F6
:100566000E94E90D0E94E40DA937E0E0BE0724F0E1
:10057600E4E0F0E00E94E90D0895E0E0E0938403F2
:10058600E0938503E0938003E0938103E093820385
:10059600E093830308950E94EE0DEE81FF810E170E
:1005A6001F0744F4A6E00E94FB0D0E94030E0F5F96
:1005B6001F4FF3CF26C0A0E00E94560B3297089536
:1005C600A5E00E94FB0DADECBCEB8EE194E40E942D
:1005D600B110A0E0B0E088EC92E40E9463100E94A3
:1005E600A90F08950E94EE0DEE81FF810E171F07D9
:1005F60044F4A2E00E94FB0D0E94030E0F5F1F4F02
:10060600F3CFEE81FF81AA81BB818C819D810E94FF
:100616001E110E94E00F0E94B1100E94A90F1981BD
:100626000881289608950E940E0EAC970E948511A7
:100636000E941C0E0E94B00D0E94AF064E2F552739
:10064600DA01EFE0F0E00E944E11309729F0A09118
:10065600CC07A13009F0B0C0AC98E0E0E093CC073D
:10066600E1E0F0E02F01A8E8B3E10E94700FAAE0F4
:10067600B0E0B8DFE093FC06F093FD069CDFE09364
:10068600FE06F093FF06A4EFB1E085DFE0930007D6
:10069600F093010795DFE0930207F0930307E4E088
:1006A600F7E0A0E0B0E0A083B183E6E0F7E0ABE7D7
:1006B600B0E0A083B183EAE0F7E0A0E0B0E0A08379
:1006C600B183E0E0EBBF7894022E032A31F40E9456
:1006D600C409309711F02F5F3F4FE1E0F0E0E217D9
:1006E600F30721F40E946F082F5F3F4FE2E0F0E02E
:1006F600E217F30731F4A0E6B2E00E942E072F5F5F
:100706003F4FE3E0F0E0E217F307D1F400E010E03A
:100716000E946007309721F40A31E0E01E070CF0D2
:1007260003C00E94210EF4CF0A31E0E01E0744F414
:100736000E94F409E0930807F09309072F5F3F4FE3
:10074600E4E0F0E0E217F30751F4ACEFB6E00E9404
:10075600F008309711F02F5F3F4F0E94210EE5E021
:10076600F0E0E217F307E1F40E94250E0E94250E41
:100776000E94250E0E94250E0E94250EDE0150962F
:100786000E944F0AE889E05DEA93EF85EA93EE85D9
:10079600EA93ED85EA93EC85EA93AB850E947A06A7
:1007A6000E94DC09A8E9BAE30E94700F442455248C
:1007B600AAE0B0E00E94700FE0E8EBBF78940E94D8
:1007C600AC0D0E948C11E29685C06A937A938A9347
:1007D6009A93AA93BA93EA93FA93EFB7EA931A9382
:1007E6001CB10E942A0E1083A2E9B3E00E94310ECA
:1007F600A0919203B09193038091940390919503F5
:10080600A636E3E0BE07E0E08E07E0E09E07D4F4FC
:100816000E942A0EA081A035A1F4E0919203F091E6
:1008260093033197EA56FC4FA081A93451F4E09125
:100836009203F09193033297EA56FC4FA081AB32B4
:1008460009F002C00E943A0E1991E991EFBFF991A1
:10085600E991B991A991999189917991699118959F
:100866000E940E0EE8E2E2BF042C052891F1A09149
:100876007A03B0917B0380917C0390917D03A43F22
:10088600E1E0BE07E0E08E07E0E09E07ECF0E0E086
:10089600E0937A03E0937B03E0937C03E0937D038C
:1008A600A2E0B0E09FDEE093C607F093C70783DEC1
:1008B600E093C807F093C907A5E0B0E06CDEE093CB
:1008C600CA07F093CB07D5DDAAE7B3E00E94310E45
:1008D60001C053DEE991EFBFF991E991B991A99170
:1008E6009991899179916991F99019900990189542
:1008F6000A92AA93BA93EA93FA93EFB7EA93E4E9D2
:10090600E4BDACE8B3E00E94440E0E944A0E119783
:1009160031F4A0919003B091910314970CF43DC06B
:10092600E0E0E0939003E09391030E944F0E0E9453
:10093600540E0E94811114F4E1E001C0E0E0E030C1
:1009460011F4D89801C0D89A0E94540E129714F048
:10095600E1E001C0E0E0E03011F4C09801C0C09AC7
:100966000E94540E139714F0E1E001C0E0E0E0307D
:1009760011F4C19801C0C19A0E94540E149714F044
:10098600E1E001C0E0E0E03011F4DB9801C0DB9A61
:10099600C49AC398D998C598D3C00E944A0E129794
:1009A60031F4A0918E03B0918F0312970CF43DC0E1
:1009B600E0E0E0938E03E0938F030E944F0E0E94C7
:1009C600590E0E94811114F4E1E001C0E0E0E0302C
:1009D60011F4D89801C0D89A0E94590E129714F0B3
:1009E600E1E001C0E0E0E03011F4C09801C0C09A37
:1009F6000E94590E139714F0E1E001C0E0E0E030E8
:100A060011F4C19801C0C19A0E94590E149714F0AE
:100A1600E1E001C0E0E0E03011F4DB9801C0DB9AD0
:100A2600C498C39AD998C5988BC00E944A0E13974A
:100A3600C1F50E944F0E0E945E0E139714F0E1E07E
:100A460001C0E0E0E03011F4D89801C0D89A0E94C5
:100A56005E0E129714F0E1E001C0E0E0E03011F420
:100A6600C09801C0C09A0E945E0E0E94811114F4C3
:100A7600E1E001C0E0E0E03011F4C19801C0C19AA4
:100A86000E945E0E149714F0E1E001C0E0E0E03051
:100A960011F4DB9801C0DB9AC498C398D99AC5981B
:100AA6004FC00E944A0E149709F04AC00E944F0E8A
:100AB600A0918A03B0918B03119711F4E1E001C074
:100AC600E0E0E03011F4D89801C0D89AC098A0911F
:100AD6008803B0918903119711F4E1E001C0E0E0C9
:100AE600E03011F4C19801C0C19AA0918603B0917B
:100AF6008703119711F4E1E001C0E0E0E03011F462
:100B0600DB9801C0DB9AC498C398D998A0917E035C
:100B1600B0917F03E1E0F0E00E942311E03011F490
:100B2600C59801C0C59AE0E0E0938C03E0938D037D
:100B3600AEE8B3E00E94440EA0E9B3E00E94440E82
:100B4600E991EFBFF991E991B991A99109901895A9
:100B5600EBE1EABBE0E0EBBBEBE3E7BBE0E0E8BBE5
:100B6600E8E1E4BBE0E0E5BBE0E2E1BBE0E0E2BBFC
:100B7600E4E0E3BFE8E2E2BFE0E0ECBFE1E8EFBDBE
:100B8600EAE0EEBDE7EFEDBDECE5ECBDE0E0E7BD8C
:100B9600E6BDEBBDEABDE9BDE8BDE2BDE4E0E5BD0D
:100BA600E3E5E4BDE0E0E3BDE1E4E9BFEBB7E0681F
:100BB600EBBFE8E0E5BFE0E0E4BFE0E8EABFE0E085
:100BC600EBB9E8E9EAB9E6E8E0BDE0E0E0BDE7E474
:100BD600E9B9E0E8E8B9E0E2E7B9E4E8E6B9E0E077
:100BE600E0BFEDB9E6BF0E941F0FE0E0EA93EBE439
:100BF600EA93E0E5EA93A0E00E943B0BE1E0E09394
:100C0600CC07E1E1EA93E1E0EA93EA93ECE0EA93C8
:100C1600E5E0EA93A5E06BD0B0DCDC98E4EFF1E028
:100C2600FBBDEABD0E94630E78940E94AC0D0E9443
:100C3600B40D0E94670EDC98EBB7E068EBBF7894C2
:100C46000E94AC0D0E94B40DF6CFFFCFAA931A9363
:100C56000A93AA81BB27EAE0F0E00E944E111E2FFC
:100C6600AA81B0E0EAE0F0E00E9449110E2FE29579
:100C7600E07FE12B198108810C94F10BAA931A935A
:100C86000A93EA81EF701E2FEA81E295EF700E2F2C
:100C9600AAE00A02F001E10F198108810C94F10B18
:100CA600AA930E946B0EA8810E94730EBFC0AA93DE
:100CB6001A930E946B0E0E94240FAFED0E94580FEC
:100CC600A0E00E943D0F1E2F1881B0C0AA931A9370
:100CD600AA81EDDF1E2FA981E8E0EA1BAFEFB0E0A5
:100CE6000E940F111E23E12F18810C94F10BAA9379
:100CF6000E948711AE81AADF1E2FAD81A7DF0E2FBE
:100D0600AC81A4DF3E2FE0E0EA93A0E0C9DFE7E094
:100D1600EA93A0E4C5DFE1E0EA93A02FC1DFE2E0B9
:100D2600EA93A12FBDDFE3E0EA93A9E0B9DFE4E0AF
:100D3600EA93A885A150B4DFE5E0EA93A985B0DF80
:100D4600E6E0EA93AA85ACDFE0E0EA93A0E8A8DF54
:100D56000E948E112A960895E1E0EA93A7E0B6DF95
:100D6600AE2F8CDF08950E94770E00E010E0EA8136
:100D7600FB810E171F0754F4F801AC81BD81AE0F3D
:100D8600BF1FE0E0EC930F5F1F4FF1CFA1C1BA93F5
:100D9600AA93E6E9F3E0FA93EA93AA81BB810E945B
:100DA600CB0B309719F0E1E0F0E040C0E0E0F0E076
:100DB6003DC00E94770E01E010E0AC81BD81E7DF07
:100DC600309729F40E947C0EE017F1070CF405C059
:100DD6000F5F1F4F0E94830EF0CF0E947C0E0E17EE
:100DE6001F071CF4E1E0F0E073C1E0E0F0E070C141
:100DF600E6E9F3E0FA93EA93A5E6B3E0B4DF0E94EE
:100E06003A0E0895BA93AA93E8E7F0E0FA93EA93C4
:100E1600EA81FB810E94870EEDE0F0E060E070E081
:100E26000E947C1188E00E948D0D2A9622960895D4
:100E36000E94830EEAE7F0E0FA93EA93EAE1F0E033
:100E460060E070E00E947C1184E00E948D0D269681
:100E56000E948C0E0895BA93AA932C97A1E6B2E04D
:100E66000E94900EA5E6B2E0CDDFA8ECB0E00E94AD
:100E7600700FAAE6B2E0C6DF0E948C0E0E948C0EAE
:100E8600B7DFA4E7B2E0BEDF0E948C0EADE7B2E0AA
:100E96007EDF309781F4FE01FA93EA93EFE9F0E002
:100EA600FA93EA93E889F9890E94870E0E94930EC5
:100EB600DE010E94900E2E9608959ADFA4EBB2E012
:100EC6000E94900EADEBB2E062DF309709F085C26A
:100ED60081C2BA93AA93A3971A930A9301E010E0EA
:100EE60087DFE1E0F0E0E017F10761F4A6ECB2E09D
:100EF60089DFE9ECF2E00E94980E21F00F5F1F4FA8
:100F06000E94630E75DFE2E0F0E0E017F107E1F41E
:100F1600ACECB2E077DFE7EDF2E00E94A00EFE0156
:100F26003296FA93EA93E8E0F1E00E94A60E0E9458
:100F3600930EDE0112960E94900EAAEDB2E027DF14
:100F4600309711F40F5F1F4F53DFE3E0F0E0E01737
:100F5600F107A9F4FE013296FA93EA93E5E2F1E08D
:100F66000E94A60E0E94930EDE0112964BDFE0EE63
:100F7600F2E00E94A00E309711F00F5F1F4F38DF8E
:100F8600E4E0F0E0E017F10769F4A3EEB2E03ADF3F
:100F9600ECEEF2E0FA93EA93AFE00E94AB0E11F0AA
:100FA6000F5F1F4F25DFE5E0F0E0E017F10739F4AA
:100FB600AFEEB2E027DF0E94630E0F5F1F4F0630D1
:100FC600E0E01E071CF4E0E0F0E002C0E1E0F0E043
:100FD60019810881A7960895BA93AA93E29708DF24
:100FE600A8EFB2E00FDFE5E0F3E00E94B00E00DF0D
:100FF600FE01FA93EA93E7E5F1E0FA93EA93EEA9A4
:10100600FFA90E94870E0E94930EDE01FBDEE8E038
:10101600F3E00E94B00EEBE0F3E0FA93EA93A4E16A
:10102600B0E0C7DEA3E1B3E0B2DE309719F0E2E04C
:10103600F0E012C0ABE1B3E0AADE309719F0E1E0D0
:10104600F0E00AC0A6E2B3E0A2DE309719F0E0E0D5
:10105600F0E002C0E0E0F0E0E49608950E94770E2A
:1010660000E010E0C5DE0E94830EABE2B3E0CADE0C
:10107600E6E3F3E0FA93EA93A4E10E94AB0E39F1BA
:10108600B7DEEAEFF0E0FA93EA93EE81FF810E9481
:10109600870E84E00E948D0D26960E94630EC8DEA0
:1010A6000E948C0EC5DEE8E3F3E0FA93EA93A4E12E
:1010B6000E94AB0E61F001E010E0EA81FB81FA9339
:1010C600EA93AEE10E94AB0E11F00E94210EF801E8
:1010D6001981088126960895ECE0F7E0FA93EA93E1
:1010E600E6EAF1E00E94B60EE3E1F7E0FA93EA934E
:1010F600E8EAF1E00E94B60EEAE1F7E0FA93EA9335
:10110600EAEAF1E00E94B60EE1E2F7E0FA93EA932A
:10111600ECEAF1E00E94B60EE8E2F7E0FA93EA9311
:10112600EBE7F0E00E94B60EEFE2F7E0FA93EA93FF
:10113600EBEFF0E00E94B60EE6E3F7E0FA93EA93EF
:10114600EEEAF1E00E94B60EEDE3F7E0FA93EA93D9
:10115600E0EBF1E00E94B60EE4E4F7E0FA93EA93DE
:10116600E2EBF1E00E94B60EE8E5F7E0FA93EA93C7
:10117600EEEBF1E00E94B60EECE6F7E0FA93EA93A6
:10118600ECECF1E00E94B60EE0E8F7E0FA93EA93A1
:10119600E9EDF1E00E94B60EE2EBF7E0FA93EA938E
:1011A600E0EFF1E0FA93EA9380E00E945F0D0C9481
:1011B600E00BA0E4B3E026DEECE4F3E0FA93EA9376
:1011C600A3E008C0AFE4B3E01DDEEAE5F3E0FA937E
:1011D600EA93A5E0B0E0EDDD0895BA93AA93AC9743
:1011E600D1500E9487110E941C0EFE013496FA937C
:1011F600EA93E5E1F2E0FA93EA93ECE0F7E00E9485
:10120600870EDE01A85CBE4F0D90BC91A02D0E94FA
:10121600BD0EE3E1F7E00E94870EDE01A05CBE4F43
:101226000D90BC91A02D12960E94BD0EEAE1F7E04A
:101236000E94870EDE01A85BBE4F0D90BC91A02DCB
:1012460014960E94BD0EE1E2F7E00E94870EDE01D1
:10125600A05BBE4F0D90BC91A02D16960E94BD0EB0
:10126600E8E2F7E00E94870EDE01A85ABE4F0D9015
:10127600BC91A02D18960E94BD0EEFE2F7E00E94E9
:10128600870EDE01A05ABE4F0D90BC91A02D1A9676
:101296000E94BD0EE6E3F7E00E94870EDE01A85924
:1012A600BE4F0D90BC91A02D1C960E94BD0EEDE385
:1012B600F7E00E94870EDE01A059BE4F0D90BC914B
:1012C600A02D1E960E94BD0E80E40E945F0DEF9633
:1012D6002596FE01E859FF4FFA93EA93E5E4F2E01A
:1012E600FA93EA93E0E8F7E00E94870EECE6F7E06F
:1012F6000E94870EDE0150960E94B20B0E94870E56
:10130600FE0174960E94870E80E10E945F0D64962E
:1013160020E030E0A8E5B7E0DCDD319721F00630CB
:10132600E0E01E070CF003C00F5F1F4FF3CFA4E4ED
:10133600B7E052DEFE01E859FF4FFA93EA93A2EBBB
:10134600B7E08CDE309739F034DF0E94630E3ADF67
:10135600E1E0F0E011C02630E0E03E073CF42F5F0C
:101366003F4F27DF2FDF0E94210ED4CF22DF0E94BE
:10137600630E28DFE0E0F0E00E948E11E296DF5F68
:10138600089536DDADE5B3E00E94900EA0E6B3E029
:10139600FEDC309721F4AB9A0E94670EAB9828DDED
:1013A600A3E6B3E02FDDE6E6F3E00E94980EA9F48B
:1013B6000DC0AB9A0E94670EAB981ADDA9E6B3E0A2
:1013C60021DDECE6F3E00E94980E39F0AB9A0E941C
:1013D600670EAB98E0E0F0E00895E1E0F0E00895F4
:1013E600089523970E9487110E941C0EFE013496D1
:1013F600FA93EA93A3E0B0E0B6DCFADCAFE6B3E03A
:1014060001DDE6E7F3E0FA93EA93A1E0B0E0D1DC90
:10141600A6E9B3E0A00FB11FAC91AA3321F00531C4
:10142600E0E01E070CF003C00F5F1F4FF1CF0F5F08
:101436001F4FA6E9B3E0A00FB11FAC91AC3221F06B
:101446002330E0E03E070CF012C0F901DE011496ED
:10145600EA0FFB1F0F01A6E9B3E0A00FB11FEC9145
:10146600D001EC930F5F1F4F2F5F3F4FE2CF23302A
:10147600E0E03E074CF4DE011496A20FB31FE0E055
:10148600EC932F5F3F4FF3CFDE0114960E947B0B48
:101496000E948E1127960895BA93AA936897E0E062
:1014A600EC8BED8BEE8BEF8BAE89BF89A736E3E035
:1014B600BE070CF0CAC00E94C40EA081A437E1F496
:1014C600EE89FF89E956FC4FA081A936A9F4EE8979
:1014D600FF89E856FC4FA081AD3671F4EE89FF898D
:1014E600E756FC4FA081A53639F4EE89FF89E6560A
:1014F600FC4FA081A23209F0A2C0EE89FF8937967F
:10150600EE8BFF8BAC89BD8914974CF4EC89FD8971
:10151600DE011F960E94C90E0E94CC0EF3CFE0E0BA
:10152600EB8B0E94D90EAC89BD8912974CF4EC89DD
:10153600FD89DE011C960E94C90E0E94CC0EF3CFD7
:10154600E0E0EE870E94D90EAC89BD8912974CF473
:10155600EC89FD89DE0119960E94C90E0E94CC0E07
:10156600F3CFE0E0EB870E94D90EAC89BD891297D4
:101576004CF4EC89FD89DE0116960E94C90E0E9484
:10158600CC0EF3CFE0E0E8870E94D90EAC89BD8986
:1015960012974CF4EC89FD89DE0113960E94C90E60
:1015A6000E94CC0EF3CFE0E0ED830E94D90EAC8909
:1015B600BD89129794F4EC89FD89DE010E94C90E5B
:1015C600E081EC93EE89FF893196EE8BFF8BEC89F7
:1015D600FD893196EC8BFD8BEACFE0E0EA83DE01F4
:1015E6001F960E947B0BAAA1BBA1ED93FC93DE0183
:1015F6001C960E947B0BA8A1B9A1ED93FC93DE017A
:1016060019960E947B0BAE8DBF8DED93FC93DE0188
:1016160016960E947B0BAC8DBD8DED93FC93DE017F
:1016260013960E947B0BAA8DBB8DED93FC93DE0176
:101636000E947B0BA88DB98DED93FC9306C0EE89B5
:10164600FF893196EE8BFF8B2FCFA4960895AA9330
:101656000E94240FAA810E94580FA9810E94580F48
:10166600A8810E94580FA0E00E94730E0C94F10B03
:10167600AA931A93EC810E94E20EA1E00E94580FF1
:10168600E981EE0FEE0FAE2F0E94730E1A93E2E081
:10169600EA93AD81DCDF1A93E3E0EA93AC81D7DF0E
:1016A60018810C94290CAA9322971A93EB810E9415
:1016B600E20EA0E00E94580F0E94240F1F5FA12F88
:1016C6000E94580FA1E00E943D0FEA83A0E00E940D
:1016D6003D0FE9830E94330FA981BA81E7E00E949A
:1016E6000611A5E0B0E00E94311118810C94E00BC0
:1016F600BA93AA93B981A881EC918A2FAE2F0E9442
:10170600C50DA82FEE2311F01196F6CFE894EC91B3
:10171600ED3211F4689402C0EB3209F41196662793
:101726007727EC918A2FAE2F0E94BC0DA82FEE23AF
:1017360079F0FB01660F771F660F771F6E0F7F1F0D
:10174600660F771FED91FF27E0536E0F7F1FE9CFDE
:10175600FB011EF4E095F095319622960895BA9312
:10176600AA93A991B991EE27FF276D91662311F0EF
:101776003196FBCF0895BA93AA93AA27BB27E9917E
:10178600F9910590002011F01196FBCFFD01089507
:10179600BA93AA93AA81BB81CD01E881F98171919F
:1017A600772311F4FC0109C06D916717C1F3019607
:1017B600DC01662391F7EE27FF2724960895AA9366
:1017C6005D9BFECFE881ECB921960895BA93AA9362
:1017D600AA81F5DFA881B9810E94440E2396089557
:1017E6000E94770EAA81BB8112960E946A113097D9
:1017F60029F1AA81BB8114960E946A118F01309744
:1018060061F00230E0E01E0780F0F80131978F01A9
:10181600AA81BB811496ED93FC93AA81BB81129693
:101826000E94440E3197AC81A083AA81BB810E949D
:101836006A11FF2312F00E94440E06C0AA81BB81E2
:10184600EFEFFFEFED93FC9319810881259608953C
:10185600BA93AA9326970E94851110E0AC85BD85A0
:10186600E0E0F0E0ED93FC93EA89FB893196EA8BA0
:10187600FB8B3197E4912E2FE03009F415C1E12F4F
:10188600E03039F4253211F411E002C00E94EA0E6C
:101896000AC1E130A9F4253219F40E94EA0E02C108
:1018A60012E040E000E02D3211F401E0FCC02B32E2
:1018B60011F44BE2F8C0203211F440E2F4C002C049
:1018C600E23039F450E013E0203311F40068EBC045
:1018D60003C0E33009F0E7C0203310F02A3308F0E4
:1018E60007C0AAE05A9F502DE22FE0535E0FDBC0DF
:1018F600E22FE33649F40E94F10EE889F989A481C2
:10190600AA930E94F70ECEC0E33741F40E94F10E6F
:101916000E94FD0E0E94B20B1E2F0AC0E03761F432
:101926000E94F10E0E94FD0E0E94BE0B1E2F086043
:1019360002600F7730E034C0E43611F0E93611F476
:10194600046002C0E53731F4E4E5F0E0EE83FF839E
:1019560015E00CC0E83511F4086003C0E83709F05B
:10196600A1C0EEE5F0E0EE83FF8314E002FF14C0B1
:101976000E94F10E0E94070FAB85AA233AF4EA856E
:10198600FB850E94FA10EA87FB874DE2403011F092
:101996001F5F01C00B7F04C00E94F10E0E94070F5B
:1019A60000FD11C0151778F407FF08C002FF04C038
:1019B6000B7F242F115001C020E301C020E20E94BA
:1019C600EA0E5150EFCF312F01FF17C03030A1F092
:1019D60003FF06C0EE81FF812591EE83FF8305C0DC
:1019E600AE81BF812D91AE83BF830E94EA0E503037
:1019F60009F051503150EACF4BC020E3EE81FF8110
:101A06000E947811E887F987EE81FF813296EE838E
:101A1600FF83E885F985AA85BB85AE17BF0750F019
:101A26002F5FA885B985EA85FB85EA1BFB0BEA874C
:101A3600FB87EFCF2A3328F003FF02C0295F01C0DE
:101A4600295D04FD1AC0213320F4A885B9851197B4
:101A560009F409C0531710F000FF01C013C020E2BB
:101A660007FF0BC020E3006102FF07C00B7F4A930C
:101A76000E94F70E503009F051500E94EA0E503085
:101A860009F051503150A885B985129708F0B5CFA5
:101A960000FF08C0503031F05150E0E2EA930E9456
:101AA600F70EF8CF10E0E0CEAC85BD850E946A1136
:101AB6000E948C1164960895FF92F82E26970E9434
:101AC60087110E940F0F309719F4EFEFFFEF1DC03B
:101AD600DE0116960E94F6108D010E940F0FEE830E
:101AE600FF83E0E0E887E987DE011A960E94160F79
:101AF600E3EFFBE0FA93EA93DE011A96A9DE9F0173
:101B0600AE81BF81E0E0EC93F9010E948E112A9626
:101B1600FF900895FF92F82E26971A930A93DE01F6
:101B260014960E94F6108D01E0E0EC83ED83EE83BF
:101B3600EF83DE0118960E94160FE9EEFBE0FA939A
:101B4600EA93DE01189684DE198108812896FF90B3
:101B56000895E5B7E068E5BF0895E5B7EF77E5BF17
:101B66000895E5B7EF78E5BFEFB778948895EFBFAE
:101B76000895AA93E1E0F991F03310F0FA3308F0F2
:101B8600EE270895AA93E1E0F991F03229F0F930B1
:101B960010F0FE3008F0EE270895A091C607B09128
:101BA600C7070895E0938403F09385030895A091F1
:101BB600C807B091C9070895E0938003F0938103A5
:101BC6000895A091CA07B091CB070895E0938203C8
:101BD600F09383030895BA93AA932497E0E0E883E9
:101BE600E983EA83EB831A930A9300E010E00895F1
:101BF6000E942E02FF27662777270E94E00F08958E
:101C0600AA81BB818C819D810E941310EA83FB838C
:101C16006C837D8308950A921A92FA926A937A9354
:101C26008A939A93AA93BA93EA93FA93EFB7EA93AD
:101C3600089500E010E020E030E00895A8EEB3E05B
:101C46000C94700FFE017096FA93EA930895E09152
:101C56009203F0919303EA56FC4F08950E946E1189
:101C6600EF5FFF4F6F4F7F4F0E9473110895E0E0C3
:101C7600E0939203E0939303E0939403E093950338
:101C86000895ED91FD913196FE93EE930895A091FE
:101C96008C03B0918D030895C498C398D998C598BC
:101CA6000895A0918003B09181030895A0918203C5
:101CB600B09183030895A0918403B091850308959C
:101CC600A4EFB1E00C94700FA8EBBBE00C94700F7E
:101CD6000E94240FAEED0E94580FA9810C94580F54
:101CE6000E94580F0C94330FBA93AA931A930A932F
:101CF6000895EA81FB81AAE0B0E00E9431110895BF
:101D0600A4E6B0E00C94700F662777270E947C113A
:101D16000895A2E3B0E00C94700F0E940507F0CF7F
:101D260084E00E945F0D28960895FA93EA93A1E055
:101D3600B0E00E94DC0630970895FA93EA93AAE091
:101D4600B0E00C94DC06FA93EA93E9A5FAA5DCCF99
:101D5600B0E00E94DC0630970895FA93EA93A3E078
:101D6600B0E00C94DC06FA93EA9380E00E945F0DE3
:101D7600249608950E946A110E941E110E947C11E9
:101D86000895EE89FF89EA56FC4F0895AE0FBF1FEE
:101D9600F8CFE081EC93EC89FD893196EC8BFD8BD5
:101DA600EE89FF893196EE8BFF8B0895EE89FF89C8
:101DB6003196EE8BFF8BE0E0EC8BED8B0895EE0F0A
:101DC600E0691E2F0E94240FA12F0C94580F2A930E
:101DD600AD85BE85EF85F88909950895E889F98965
:101DE6003497E88BF98B0895AD85BE85EF85F88924
:101DF60009950895A889B98914960E946A11EE83F7
:101E0600FF83AE81BF810895A889B98914960E947F
:101E16006A11EA87FB870895DE011C960E94F61078
:101E26000E946A1108950E94F6100E946A11FA93A0
:101E3600EA931A930A930895A998A898A19AA09844
:101E460015C0A098A198EE270000989B0895999B2D
:101E5600089504D0A09A02D0A19AE1E062E107C0F9
:101E6600A09AA19A03D0A198F9DFA09865E26A9595
:101E7600F1F7089578E0A198F1DF999BFECFEEDFA8
:101E8600889498990894A19AF1DFEE1F7A9599F7AC
:101E96007A2F772311F4A09801C0A09ADFDFA198CA
:101EA600E5DFA19ADBDFA098D9CF78E0AA0F10F47E
:101EB600A09801C0A09ADADFA198D0DF999BFECF47
:101EC600CDDFA19A7A9591F7A098C8DFA198CEDFC9
:101ED600E1E09899EE27A19AC1CF109639F08DECE2
:101EE6009AE00197F1F7A8951197C9F70895552338
:101EF60042F4503811F4E0FF04C03196691F791F8F
:101F06006BF050E8572711F45F93C8C05F3F31F07C
:101F1600660F000C57956795752F08955F930020FF
:101F26000AF0C8C0C1C050E8192E1522880F991FA3
:101F36009527550F879550E8072E0522660F771FC0
:101F46007527550F67950895689401C0E8945F93C7
:101F5600F2DF703818F07F3F08F4A0C056E1571B37
:101F6600AAF4519558300EF4593030F0EFEFFFEFE8
:101F76006FEF7FE777F91AC077275523B9F0EE0F91
:101F8600FF1F661F771F5A95D1F710C07727583065
:101F960028F0EF2FF62F672F5850F9CF552331F041
:101FA60076956795F795E7955A95D1F700200AF447
:101FB60022D15F910895689401C0E89430976040FB
:101FC6007040B1F0002426F0772312F4009413D168
:101FD600172E7EE1112032F07A95EE0FFF1F661F55
:101FE600111CF9CFEF2FF62F612D5F938ADF5F91DA
:101FF60008954F93AF01FD01DA01AB01BC01CA019F
:10200600402D012C142E4F910895EA0FFB1F681FD7
:102016000895E095F0956095EF5FFF4F6F4F089537
:102026005F9381DF903839F1703821F1572F591BB2
:102036002BF112F4DEDFFACF583118F0AA27BB27AE
:102046008827583028F0AB2FB82F88275850F9CF5B
:10205600552329F08695B795A7955A95D9F7502D0A
:10206600512572F0D2DF38F46795F795E7957395A9
:1020760013F420C0BEDF45DF5F910895D8F7FBCF8C
:10208600EA1BFB0B680B51F010F40094C2DF6623C9
:1020960092F3EE0FFF1F661F7A95CBF7EE27FF2709
:1020A600662777275F910895EFEFFFEF6FE77FEFE2
:1020B6005F910895EFEFFFEF6FE77FE75F91089578
:1020C6005F9331DF703851F3903841F3012408945F
:1020D600791F23F41CF300203AF3ECCF0F921F93E1
:1020E6002F933F934F93112722279927689FA0018B
:1020F6008F9F302D410D591F6B9F300D411D591F6C
:102106008E9F27D0BF9F25D06A9F23D0BE9F1DD00C
:10211600AF9F1BD0AE9F110D291F391F491F591F95
:10212600E32FF42F652F522F4F913F912F911F913F
:102136000F9066232AF0550FEE1FFF1F661F02C081
:1021460073954BF2D4DE5F910895100D211D391F52
:1021560002C0200D311D491F591F08955F93E3DE0C
:10216600703821F411200AF49FCFA4CF903809F4D7
:1021760095CF01240894970B1BF4D4F30020F3CFDA
:10218600792F1F932F933F934F93112411272227C3
:1021960033274427552790E2AE17BF078607410726
:1021A60030F0AE1BBF0B860B410B089401C0889420
:1021B600551F221F331F111CAA1FBB1F881F441F38
:1021C6009A9551F7F901612D4F913F912F911F91EA
:1021D600662332F0550FEE1FFF1F661F7A9543F2F6
:1021E60086DE5F9108950024AF0DB01D0895F19528
:1021F600E195F0400895F09560957095E195FF4F53
:102206006F4F7F4F0895EE230E2EFD0121F0F595B9
:10221600E7950A94E1F70895EE230E2EFD0121F0CD
:10222600F695E7950A94E1F70895FE2FFF0FFF0B49
:102236006F2F7F2F08956F2F660F660B762F0895E9
:10224600EA17FB07E1E009F0EE270895FA9FF02D63
:10225600EB9FF00DEA9FE02DF10D08952AD0F6DFF1
:102266000EF4C5DF08950024112490E1AA0FBB1FC8
:10227600001C111C0E1A1F0A18F40E0E1F1E01C098
:10228600A1609A9599F7FD01D001089512D0EBDF70
:102296000EF4ADDF0895E894B7FF04C0A095B0959D
:1022A60011966894F7FDA3DFDEDFFD010EF49FDFD4
:1022B6000895E894F7FF02C09ADF6894B7FF06C056
:1022C600A095B095119600F8039400FA0895ED9143
:1022D600FC9111970895ED91FD916D917D91089571
:1022E6007E936E93FE93EE9308950590F491E02D00
:1022F60008957A936A93FA93EA93089500240A1646
:102306000B0608955A934A933A932A931A930A937B
:1023160008955D814C813B812A8119810881089548
:00000001FF
